{
  "contractName": "CertChain",
  "abi": [
    {
      "constant": true,
      "inputs": [],
      "name": "certificate_counter",
      "outputs": [
        {
          "name": "",
          "type": "uint256"
        }
      ],
      "payable": false,
      "stateMutability": "view",
      "type": "function",
      "signature": "0x70b09e24"
    },
    {
      "anonymous": false,
      "inputs": [
        {
          "indexed": true,
          "name": "issuer",
          "type": "address"
        },
        {
          "indexed": false,
          "name": "IPFS_hash",
          "type": "string"
        }
      ],
      "name": "IssuerRegistered",
      "type": "event",
      "signature": "0xc0e782e5ce31b3a8ed34a04353667fa795030402831742c8a4b938c2c96ef033"
    },
    {
      "anonymous": false,
      "inputs": [
        {
          "indexed": true,
          "name": "recipient",
          "type": "address"
        },
        {
          "indexed": false,
          "name": "IPFS_hash",
          "type": "string"
        }
      ],
      "name": "RecipientRegistered",
      "type": "event",
      "signature": "0x540051ab245198442259c711b2b55dddc858ac44be985b22fca4dba2d00572b0"
    },
    {
      "anonymous": false,
      "inputs": [
        {
          "indexed": true,
          "name": "issuer",
          "type": "address"
        },
        {
          "indexed": false,
          "name": "IPFS_hash",
          "type": "string"
        }
      ],
      "name": "CertificateRegistered",
      "type": "event",
      "signature": "0xd44cad3cdd419006c9f1ed0038d0743151290b6bf6168a5b374344aeb501c7a8"
    },
    {
      "anonymous": false,
      "inputs": [
        {
          "indexed": true,
          "name": "certificate",
          "type": "uint256"
        },
        {
          "indexed": true,
          "name": "issuer",
          "type": "address"
        },
        {
          "indexed": true,
          "name": "recipient",
          "type": "address"
        }
      ],
      "name": "CertificateIssued",
      "type": "event",
      "signature": "0xb16be250054d8205b809d26284c657602bbfc725cfc68daca4dc60a78ff137a7"
    },
    {
      "constant": false,
      "inputs": [
        {
          "name": "IPFS_hash",
          "type": "string"
        }
      ],
      "name": "registerIssuer",
      "outputs": [],
      "payable": false,
      "stateMutability": "nonpayable",
      "type": "function",
      "signature": "0x6f4581dc"
    },
    {
      "constant": false,
      "inputs": [
        {
          "name": "IPFS_hash",
          "type": "string"
        }
      ],
      "name": "registerRecipient",
      "outputs": [],
      "payable": false,
      "stateMutability": "nonpayable",
      "type": "function",
      "signature": "0xca93954f"
    },
    {
      "constant": false,
      "inputs": [
        {
          "name": "IPFS_hash",
          "type": "string"
        }
      ],
      "name": "registerCertificate",
      "outputs": [],
      "payable": false,
      "stateMutability": "nonpayable",
      "type": "function",
      "signature": "0x51eeb551"
    },
    {
      "constant": false,
      "inputs": [
        {
          "name": "_recipient",
          "type": "address"
        },
        {
          "name": "certificate_hash",
          "type": "string"
        },
        {
          "name": "c_name",
          "type": "string"
        },
        {
          "name": "c_type",
          "type": "string"
        },
        {
          "name": "c_desc",
          "type": "string"
        },
        {
          "name": "temp_flag",
          "type": "uint256"
        }
      ],
      "name": "issueCertificate",
      "outputs": [],
      "payable": false,
      "stateMutability": "nonpayable",
      "type": "function",
      "signature": "0xab19b6b1"
    },
    {
      "constant": true,
      "inputs": [
        {
          "name": "IPFS_hash",
          "type": "string"
        }
      ],
      "name": "getIssuerOfCertificate",
      "outputs": [
        {
          "name": "",
          "type": "address"
        }
      ],
      "payable": false,
      "stateMutability": "view",
      "type": "function",
      "signature": "0x55ff0e76"
    },
    {
      "constant": true,
      "inputs": [
        {
          "name": "_issuer",
          "type": "address"
        }
      ],
      "name": "getIssuer",
      "outputs": [
        {
          "name": "",
          "type": "string"
        }
      ],
      "payable": false,
      "stateMutability": "view",
      "type": "function",
      "signature": "0xfef03da3"
    },
    {
      "constant": true,
      "inputs": [
        {
          "name": "_recipient",
          "type": "address"
        }
      ],
      "name": "getRecipient",
      "outputs": [
        {
          "name": "",
          "type": "string"
        }
      ],
      "payable": false,
      "stateMutability": "view",
      "type": "function",
      "signature": "0x62812a39"
    },
    {
      "constant": true,
      "inputs": [
        {
          "name": "IPFS_hash",
          "type": "string"
        }
      ],
      "name": "getAllRecipientOfCertificate",
      "outputs": [
        {
          "name": "",
          "type": "address[]"
        }
      ],
      "payable": false,
      "stateMutability": "view",
      "type": "function",
      "signature": "0xdda9f46d"
    },
    {
      "constant": true,
      "inputs": [
        {
          "name": "_recipient",
          "type": "address"
        }
      ],
      "name": "getRecipientCertificates",
      "outputs": [
        {
          "name": "",
          "type": "uint256[]"
        }
      ],
      "payable": false,
      "stateMutability": "view",
      "type": "function",
      "signature": "0xb7716007"
    },
    {
      "constant": true,
      "inputs": [
        {
          "name": "_issuer",
          "type": "address"
        }
      ],
      "name": "getIssuerCertificates",
      "outputs": [
        {
          "name": "",
          "type": "uint256[]"
        }
      ],
      "payable": false,
      "stateMutability": "view",
      "type": "function",
      "signature": "0x7a8ee24b"
    },
    {
      "constant": true,
      "inputs": [
        {
          "name": "_id",
          "type": "uint256"
        }
      ],
      "name": "getCertificateIdentifier",
      "outputs": [
        {
          "name": "",
          "type": "string"
        },
        {
          "name": "",
          "type": "uint256"
        },
        {
          "name": "",
          "type": "address"
        },
        {
          "name": "",
          "type": "address"
        },
        {
          "name": "",
          "type": "string"
        },
        {
          "name": "",
          "type": "string"
        },
        {
          "name": "",
          "type": "string"
        }
      ],
      "payable": false,
      "stateMutability": "view",
      "type": "function",
      "signature": "0x632d9ce4"
    }
  ],
  "bytecode": "0x608060405234801561001057600080fd5b506127be806100206000396000f3fe6080604052600436106100ba576000357c0100000000000000000000000000000000000000000000000000000000900463ffffffff16806351eeb551146100bf57806355ff0e761461018757806362812a391461028f578063632d9ce4146103595780636f4581dc146105be57806370b09e24146106865780637a8ee24b146106b1578063ab19b6b114610757578063b771600714610a0e578063ca93954f14610ab4578063dda9f46d14610b7c578063fef03da314610c99575b600080fd5b3480156100cb57600080fd5b50610185600480360360208110156100e257600080fd5b81019080803590602001906401000000008111156100ff57600080fd5b82018360208201111561011157600080fd5b8035906020019184600183028401116401000000008311171561013357600080fd5b91908080601f016020809104026020016040519081016040528093929190818152602001838380828437600081840152601f19601f820116905080830192505050505050509192919290505050610d63565b005b34801561019357600080fd5b5061024d600480360360208110156101aa57600080fd5b81019080803590602001906401000000008111156101c757600080fd5b8201836020820111156101d957600080fd5b803590602001918460018302840111640100000000831117156101fb57600080fd5b91908080601f016020809104026020016040519081016040528093929190818152602001838380828437600081840152601f19601f820116905080830192505050505050509192919290505050611035565b604051808273ffffffffffffffffffffffffffffffffffffffff1673ffffffffffffffffffffffffffffffffffffffff16815260200191505060405180910390f35b34801561029b57600080fd5b506102de600480360360208110156102b257600080fd5b81019080803573ffffffffffffffffffffffffffffffffffffffff1690602001909291905050506110ca565b6040518080602001828103825283818151815260200191508051906020019080838360005b8381101561031e578082015181840152602081019050610303565b50505050905090810190601f16801561034b5780820380516001836020036101000a031916815260200191505b509250505060405180910390f35b34801561036557600080fd5b506103926004803603602081101561037c57600080fd5b81019080803590602001909291905050506111ab565b60405180806020018881526020018773ffffffffffffffffffffffffffffffffffffffff1673ffffffffffffffffffffffffffffffffffffffff1681526020018673ffffffffffffffffffffffffffffffffffffffff1673ffffffffffffffffffffffffffffffffffffffff16815260200180602001806020018060200185810385528c818151815260200191508051906020019080838360005b8381101561044857808201518184015260208101905061042d565b50505050905090810190601f1680156104755780820380516001836020036101000a031916815260200191505b50858103845288818151815260200191508051906020019080838360005b838110156104ae578082015181840152602081019050610493565b50505050905090810190601f1680156104db5780820380516001836020036101000a031916815260200191505b50858103835287818151815260200191508051906020019080838360005b838110156105145780820151818401526020810190506104f9565b50505050905090810190601f1680156105415780820380516001836020036101000a031916815260200191505b50858103825286818151815260200191508051906020019080838360005b8381101561057a57808201518184015260208101905061055f565b50505050905090810190601f1680156105a75780820380516001836020036101000a031916815260200191505b509b50505050505050505050505060405180910390f35b3480156105ca57600080fd5b50610684600480360360208110156105e157600080fd5b81019080803590602001906401000000008111156105fe57600080fd5b82018360208201111561061057600080fd5b8035906020019184600183028401116401000000008311171561063257600080fd5b91908080601f016020809104026020016040519081016040528093929190818152602001838380828437600081840152601f19601f820116905080830192505050505050509192919290505050611567565b005b34801561069257600080fd5b5061069b611791565b6040518082815260200191505060405180910390f35b3480156106bd57600080fd5b50610700600480360360208110156106d457600080fd5b81019080803573ffffffffffffffffffffffffffffffffffffffff169060200190929190505050611797565b6040518080602001828103825283818151815260200191508051906020019060200280838360005b83811015610743578082015181840152602081019050610728565b505050509050019250505060405180910390f35b34801561076357600080fd5b50610a0c600480360360c081101561077a57600080fd5b81019080803573ffffffffffffffffffffffffffffffffffffffff169060200190929190803590602001906401000000008111156107b757600080fd5b8201836020820111156107c957600080fd5b803590602001918460018302840111640100000000831117156107eb57600080fd5b91908080601f016020809104026020016040519081016040528093929190818152602001838380828437600081840152601f19601f8201169050808301925050505050505091929192908035906020019064010000000081111561084e57600080fd5b82018360208201111561086057600080fd5b8035906020019184600183028401116401000000008311171561088257600080fd5b91908080601f016020809104026020016040519081016040528093929190818152602001838380828437600081840152601f19601f820116905080830192505050505050509192919290803590602001906401000000008111156108e557600080fd5b8201836020820111156108f757600080fd5b8035906020019184600183028401116401000000008311171561091957600080fd5b91908080601f016020809104026020016040519081016040528093929190818152602001838380828437600081840152601f19601f8201169050808301925050505050505091929192908035906020019064010000000081111561097c57600080fd5b82018360208201111561098e57600080fd5b803590602001918460018302840111640100000000831117156109b057600080fd5b91908080601f016020809104026020016040519081016040528093929190818152602001838380828437600081840152601f19601f8201169050808301925050505050505091929192908035906020019092919050505061182e565b005b348015610a1a57600080fd5b50610a5d60048036036020811015610a3157600080fd5b81019080803573ffffffffffffffffffffffffffffffffffffffff169060200190929190505050612168565b6040518080602001828103825283818151815260200191508051906020019060200280838360005b83811015610aa0578082015181840152602081019050610a85565b505050509050019250505060405180910390f35b348015610ac057600080fd5b50610b7a60048036036020811015610ad757600080fd5b8101908080359060200190640100000000811115610af457600080fd5b820183602082011115610b0657600080fd5b80359060200191846001830284011164010000000083111715610b2857600080fd5b91908080601f016020809104026020016040519081016040528093929190818152602001838380828437600081840152601f19601f8201169050808301925050505050505091929192905050506121ff565b005b348015610b8857600080fd5b50610c4260048036036020811015610b9f57600080fd5b8101908080359060200190640100000000811115610bbc57600080fd5b820183602082011115610bce57600080fd5b80359060200191846001830284011164010000000083111715610bf057600080fd5b91908080601f016020809104026020016040519081016040528093929190818152602001838380828437600081840152601f19601f820116905080830192505050505050509192919290505050612429565b6040518080602001828103825283818151815260200191508051906020019060200280838360005b83811015610c85578082015181840152602081019050610c6a565b505050509050019250505060405180910390f35b348015610ca557600080fd5b50610ce860048036036020811015610cbc57600080fd5b81019080803573ffffffffffffffffffffffffffffffffffffffff169060200190929190505050612522565b6040518080602001828103825283818151815260200191508051906020019080838360005b83811015610d28578082015181840152602081019050610d0d565b50505050905090810190601f168015610d555780820380516001836020036101000a031916815260200191505b509250505060405180910390f35b60011515600860003373ffffffffffffffffffffffffffffffffffffffff1673ffffffffffffffffffffffffffffffffffffffff16815260200190815260200160002060009054906101000a900460ff161515141515610e51576040517f08c379a000000000000000000000000000000000000000000000000000000000815260040180806020018281038252602f8152602001807f497373756572206e6f74207265676973746572656420746f207265676973746581526020017f722061206365727469666963617465000000000000000000000000000000000081525060400191505060405180910390fd5b336001826040518082805190602001908083835b602083101515610e8a5780518252602082019150602081019050602083039250610e65565b6001836020036101000a038019825116818451168082178552505050505050905001915050908152602001604051809103902060006101000a81548173ffffffffffffffffffffffffffffffffffffffff021916908373ffffffffffffffffffffffffffffffffffffffff1602179055506000600b826040518082805190602001908083835b602083101515610f355780518252602082019150602081019050602083039250610f10565b6001836020036101000a038019825116818451168082178552505050505050905001915050908152602001604051809103902060006101000a81548160ff0219169083151502179055503373ffffffffffffffffffffffffffffffffffffffff167fd44cad3cdd419006c9f1ed0038d0743151290b6bf6168a5b374344aeb501c7a8826040518080602001828103825283818151815260200191508051906020019080838360005b83811015610ff8578082015181840152602081019050610fdd565b50505050905090810190601f1680156110255780820380516001836020036101000a031916815260200191505b509250505060405180910390a250565b60006001826040518082805190602001908083835b60208310151561106f578051825260208201915060208101905060208303925061104a565b6001836020036101000a038019825116818451168082178552505050505050905001915050908152602001604051809103902060009054906101000a900473ffffffffffffffffffffffffffffffffffffffff169050919050565b6060600360008373ffffffffffffffffffffffffffffffffffffffff1673ffffffffffffffffffffffffffffffffffffffff1681526020019081526020016000208054600181600116156101000203166002900480601f01602080910402602001604051908101604052809291908181526020018280546001816001161561010002031660029004801561119f5780601f106111745761010080835404028352916020019161119f565b820191906000526020600020905b81548152906001019060200180831161118257829003601f168201915b50505050509050919050565b6060600080600060608060606111bf612603565b600560008a815260200190815260200160002060e06040519081016040529081600082018054600181600116156101000203166002900480601f0160208091040260200160405190810160405280929190818152602001828054600181600116156101000203166002900480156112775780601f1061124c57610100808354040283529160200191611277565b820191906000526020600020905b81548152906001019060200180831161125a57829003601f168201915b50505050508152602001600182015481526020016002820160009054906101000a900473ffffffffffffffffffffffffffffffffffffffff1673ffffffffffffffffffffffffffffffffffffffff1673ffffffffffffffffffffffffffffffffffffffff1681526020016003820160009054906101000a900473ffffffffffffffffffffffffffffffffffffffff1673ffffffffffffffffffffffffffffffffffffffff1673ffffffffffffffffffffffffffffffffffffffff168152602001600482018054600181600116156101000203166002900480601f0160208091040260200160405190810160405280929190818152602001828054600181600116156101000203166002900480156113cf5780601f106113a4576101008083540402835291602001916113cf565b820191906000526020600020905b8154815290600101906020018083116113b257829003601f168201915b50505050508152602001600582018054600181600116156101000203166002900480601f0160208091040260200160405190810160405280929190818152602001828054600181600116156101000203166002900480156114715780601f1061144657610100808354040283529160200191611471565b820191906000526020600020905b81548152906001019060200180831161145457829003601f168201915b50505050508152602001600682018054600181600116156101000203166002900480601f0160208091040260200160405190810160405280929190818152602001828054600181600116156101000203166002900480156115135780601f106114e857610100808354040283529160200191611513565b820191906000526020600020905b8154815290600101906020018083116114f657829003601f168201915b5050505050815250509050806000015181602001518260400151836060015184608001518560a001518660c00151869650829250819150809050975097509750975097509750975050919395979092949650565b60001515600860003373ffffffffffffffffffffffffffffffffffffffff1673ffffffffffffffffffffffffffffffffffffffff16815260200190815260200160002060009054906101000a900460ff16151514151561162f576040517f08c379a00000000000000000000000000000000000000000000000000000000081526004018080602001828103825260198152602001807f49737375657220616c726561647920726567697374657265640000000000000081525060200191505060405180910390fd5b80600260003373ffffffffffffffffffffffffffffffffffffffff1673ffffffffffffffffffffffffffffffffffffffff168152602001908152602001600020908051906020019061168292919061266d565b506001600860003373ffffffffffffffffffffffffffffffffffffffff1673ffffffffffffffffffffffffffffffffffffffff16815260200190815260200160002060006101000a81548160ff0219169083151502179055503373ffffffffffffffffffffffffffffffffffffffff167fc0e782e5ce31b3a8ed34a04353667fa795030402831742c8a4b938c2c96ef033826040518080602001828103825283818151815260200191508051906020019080838360005b83811015611754578082015181840152602081019050611739565b50505050905090810190601f1680156117815780820380516001836020036101000a031916815260200191505b509250505060405180910390a250565b60005481565b6060600760008373ffffffffffffffffffffffffffffffffffffffff1673ffffffffffffffffffffffffffffffffffffffff16815260200190815260200160002080548060200260200160405190810160405280929190818152602001828054801561182257602002820191906000526020600020905b81548152602001906001019080831161180e575b50505050509050919050565b60011515600860003373ffffffffffffffffffffffffffffffffffffffff1673ffffffffffffffffffffffffffffffffffffffff16815260200190815260200160002060009054906101000a900460ff16151514151561191c576040517f08c379a000000000000000000000000000000000000000000000000000000000815260040180806020018281038252602f8152602001807f497373756572206e6f74207265676973746572656420746f207265676973746581526020017f722061206365727469666963617465000000000000000000000000000000000081525060400191505060405180910390fd5b60011515600960008873ffffffffffffffffffffffffffffffffffffffff1673ffffffffffffffffffffffffffffffffffffffff16815260200190815260200160002060009054906101000a900460ff161515141515611a0a576040517f08c379a00000000000000000000000000000000000000000000000000000000081526004018080602001828103825260338152602001807f526563697069656e74206e6f74207265676973746572656420746f206265206981526020017f737375656420612063657274696669636174650000000000000000000000000081525060400191505060405180910390fd5b3373ffffffffffffffffffffffffffffffffffffffff166001866040518082805190602001908083835b602083101515611a595780518252602082019150602081019050602083039250611a34565b6001836020036101000a038019825116818451168082178552505050505050905001915050908152602001604051809103902060009054906101000a900473ffffffffffffffffffffffffffffffffffffffff1673ffffffffffffffffffffffffffffffffffffffff16141515611b5e576040517f08c379a000000000000000000000000000000000000000000000000000000000815260040180806020018281038252602f8152602001807f497373756572206e6f74207265676973746572656420746f206973737565207481526020017f686973206365727469666963617465000000000000000000000000000000000081525060400191505060405180910390fd5b60001515600b866040518082805190602001908083835b602083101515611b9a5780518252602082019150602081019050602083039250611b75565b6001836020036101000a038019825116818451168082178552505050505050905001915050908152602001604051809103902060009054906101000a900460ff161515141515611c52576040517f08c379a00000000000000000000000000000000000000000000000000000000081526004018080602001828103825260158152602001807f4475706c6963617465206365727469666963617465000000000000000000000081525060200191505060405180910390fd5b85600a866040518082805190602001908083835b602083101515611c8b5780518252602082019150602081019050602083039250611c66565b6001836020036101000a038019825116818451168082178552505050505050905001915050908152602001604051809103902060006101000a81548173ffffffffffffffffffffffffffffffffffffffff021916908373ffffffffffffffffffffffffffffffffffffffff1602179055506001600b866040518082805190602001908083835b602083101515611d365780518252602082019150602081019050602083039250611d11565b6001836020036101000a038019825116818451168082178552505050505050905001915050908152602001604051809103902060006101000a81548160ff021916908315150217905550611d88612603565b600080600080815460010191905081905590508783600001819052504283602001818152505033836040019073ffffffffffffffffffffffffffffffffffffffff16908173ffffffffffffffffffffffffffffffffffffffff168152505088836060019073ffffffffffffffffffffffffffffffffffffffff16908173ffffffffffffffffffffffffffffffffffffffff1681525050858360800181905250868360a00181905250848360c0018190525082600560008381526020019081526020016000206000820151816000019080519060200190611e699291906126ed565b506020820151816001015560408201518160020160006101000a81548173ffffffffffffffffffffffffffffffffffffffff021916908373ffffffffffffffffffffffffffffffffffffffff16021790555060608201518160030160006101000a81548173ffffffffffffffffffffffffffffffffffffffff021916908373ffffffffffffffffffffffffffffffffffffffff1602179055506080820151816004019080519060200190611f1e9291906126ed565b5060a0820151816005019080519060200190611f3b9291906126ed565b5060c0820151816006019080519060200190611f589291906126ed565b509050508381019150600660008a73ffffffffffffffffffffffffffffffffffffffff1673ffffffffffffffffffffffffffffffffffffffff168152602001908152602001600020819080600181540180825580915050906001820390600052602060002001600090919290919091505550600760003373ffffffffffffffffffffffffffffffffffffffff1673ffffffffffffffffffffffffffffffffffffffff1681526020019081526020016000208290806001815401808255809150509060018203906000526020600020016000909192909190915055506004886040518082805190602001908083835b60208310151561206b5780518252602082019150602081019050602083039250612046565b6001836020036101000a03801982511681845116808217855250505050505090500191505090815260200160405180910390208990806001815401808255809150509060018203906000526020600020016000909192909190916101000a81548173ffffffffffffffffffffffffffffffffffffffff021916908373ffffffffffffffffffffffffffffffffffffffff160217905550508873ffffffffffffffffffffffffffffffffffffffff163373ffffffffffffffffffffffffffffffffffffffff16827fb16be250054d8205b809d26284c657602bbfc725cfc68daca4dc60a78ff137a760405160405180910390a4505050505050505050565b6060600660008373ffffffffffffffffffffffffffffffffffffffff1673ffffffffffffffffffffffffffffffffffffffff1681526020019081526020016000208054806020026020016040519081016040528092919081815260200182805480156121f357602002820191906000526020600020905b8154815260200190600101908083116121df575b50505050509050919050565b60001515600960003373ffffffffffffffffffffffffffffffffffffffff1673ffffffffffffffffffffffffffffffffffffffff16815260200190815260200160002060009054906101000a900460ff1615151415156122c7576040517f08c379a000000000000000000000000000000000000000000000000000000000815260040180806020018281038252601c8152602001807f526563697069656e7420616c726561647920726567697374657265640000000081525060200191505060405180910390fd5b80600360003373ffffffffffffffffffffffffffffffffffffffff1673ffffffffffffffffffffffffffffffffffffffff168152602001908152602001600020908051906020019061231a92919061266d565b506001600960003373ffffffffffffffffffffffffffffffffffffffff1673ffffffffffffffffffffffffffffffffffffffff16815260200190815260200160002060006101000a81548160ff0219169083151502179055503373ffffffffffffffffffffffffffffffffffffffff167f540051ab245198442259c711b2b55dddc858ac44be985b22fca4dba2d00572b0826040518080602001828103825283818151815260200191508051906020019080838360005b838110156123ec5780820151818401526020810190506123d1565b50505050905090810190601f1680156124195780820380516001836020036101000a031916815260200191505b509250505060405180910390a250565b60606004826040518082805190602001908083835b602083101515612463578051825260208201915060208101905060208303925061243e565b6001836020036101000a038019825116818451168082178552505050505050905001915050908152602001604051809103902080548060200260200160405190810160405280929190818152602001828054801561251657602002820191906000526020600020905b8160009054906101000a900473ffffffffffffffffffffffffffffffffffffffff1673ffffffffffffffffffffffffffffffffffffffff16815260200190600101908083116124cc575b50505050509050919050565b6060600260008373ffffffffffffffffffffffffffffffffffffffff1673ffffffffffffffffffffffffffffffffffffffff1681526020019081526020016000208054600181600116156101000203166002900480601f0160208091040260200160405190810160405280929190818152602001828054600181600116156101000203166002900480156125f75780601f106125cc576101008083540402835291602001916125f7565b820191906000526020600020905b8154815290600101906020018083116125da57829003601f168201915b50505050509050919050565b60e0604051908101604052806060815260200160008152602001600073ffffffffffffffffffffffffffffffffffffffff168152602001600073ffffffffffffffffffffffffffffffffffffffff1681526020016060815260200160608152602001606081525090565b828054600181600116156101000203166002900490600052602060002090601f016020900481019282601f106126ae57805160ff19168380011785556126dc565b828001600101855582156126dc579182015b828111156126db5782518255916020019190600101906126c0565b5b5090506126e9919061276d565b5090565b828054600181600116156101000203166002900490600052602060002090601f016020900481019282601f1061272e57805160ff191683800117855561275c565b8280016001018555821561275c579182015b8281111561275b578251825591602001919060010190612740565b5b509050612769919061276d565b5090565b61278f91905b8082111561278b576000816000905550600101612773565b5090565b9056fea165627a7a72305820fbe8848600bd39333342c407b8456c46ba1ce758811a2132dee6a0de72ba6de30029",
  "source": "pragma solidity 0.5.0;\n\ncontract CertChain {\n    uint public certificate_counter;\n\n    // Structure\n    struct Certificate {\n        string ipfsHash;\n        uint timeOfIssue;\n        address issuer;\n        address recipient;\n        string ctype;\n        string cname;\n        string cdesc;\n    }\n\n    // Mappings\n    mapping(string => address) issuerOfCertificate;\n    mapping(address => string) issuer;\n    mapping(address => string) recipient;\n    mapping(string => address[]) allRecipientOfCertificate;\n    mapping(uint => Certificate) certificateIdentifier;\n    mapping(address => uint[]) recipientCertificates;\n    mapping(address => uint[]) issuerCertificates;\n    mapping(address => bool) isIssuer;\n    mapping(address => bool) isRecipient;\n    mapping(string => address) recipient_hash_mapping; \n    mapping(string => bool) isRecipient_hash_mapping;\n\n    // Events\n    event IssuerRegistered(address indexed issuer, string IPFS_hash);\n    event RecipientRegistered(address indexed recipient, string IPFS_hash);\n    event CertificateRegistered(address indexed issuer, string IPFS_hash);\n    event CertificateIssued(uint indexed certificate, address indexed issuer, address indexed recipient);\n\n    // Functions\n    function registerIssuer(string memory IPFS_hash) public {\n        require((isIssuer[msg.sender] == false), \"Issuer already registered\");\n        issuer[msg.sender] = IPFS_hash;\n        isIssuer[msg.sender] = true;\n        emit IssuerRegistered(msg.sender, IPFS_hash);\n    }\n\n    function registerRecipient(string memory IPFS_hash) public {\n        require(isRecipient[msg.sender] == false, \"Recipient already registered\");\n        recipient[msg.sender] = IPFS_hash;\n        isRecipient[msg.sender] = true;\n        emit RecipientRegistered(msg.sender, IPFS_hash);\n    }\n\n    function registerCertificate(string memory IPFS_hash) public {\n        require(isIssuer[msg.sender] == true, \"Issuer not registered to register a certificate\");\n        issuerOfCertificate[IPFS_hash] = msg.sender;\n        isRecipient_hash_mapping[IPFS_hash] = false;  \n        emit CertificateRegistered(msg.sender, IPFS_hash);\n    }\n\n    function issueCertificate(address _recipient, string memory certificate_hash,string memory c_name,string memory c_type,string memory c_desc, uint temp_flag) public {\n        require(isIssuer[msg.sender] == true, \"Issuer not registered to register a certificate\");\n        require(isRecipient[_recipient] == true, \"Recipient not registered to be issued a certificate\");\n        require(issuerOfCertificate[certificate_hash] == msg.sender, \"Issuer not registered to issue this certificate\");\n        require(isRecipient_hash_mapping[certificate_hash] == false, \"Duplicate certificate\");\n        recipient_hash_mapping[certificate_hash] = _recipient; \n        isRecipient_hash_mapping[certificate_hash] = true;   \n        Certificate memory cert;\n        uint temp1;\n        uint id = ++certificate_counter;\n        cert.ipfsHash = certificate_hash;\n        cert.timeOfIssue = now;\n        cert.issuer = msg.sender;\n        cert.recipient = _recipient;\n        cert.ctype=c_type;\n        cert.cname=c_name;\n        cert.cdesc=c_desc;\n        certificateIdentifier[id] = cert;\n        temp1 = id + temp_flag;\n        // recipientCertificates[_recipient].push(id);\n        // issuerCertificates[msg.sender].push(id);\n         recipientCertificates[_recipient].push(id);\n         issuerCertificates[msg.sender].push(temp1);\n        allRecipientOfCertificate[certificate_hash].push(_recipient);\n        emit CertificateIssued(id, msg.sender, _recipient);\n    }\n\n    function getIssuerOfCertificate(string memory IPFS_hash) public view returns (address) {\n        return issuerOfCertificate[IPFS_hash];\n    }\n\n    function getIssuer(address _issuer) public view returns (string memory) {\n        return issuer[_issuer];\n    }\n\n    function getRecipient(address _recipient) public view returns (string memory) {\n        return recipient[_recipient];\n    }\n\n    function getAllRecipientOfCertificate(string memory IPFS_hash) public view returns (address[] memory) {\n        return allRecipientOfCertificate[IPFS_hash];\n    }\n\n    function getRecipientCertificates(address _recipient) public view returns (uint[] memory) {\n        return recipientCertificates[_recipient];\n    }\n\n    function getIssuerCertificates(address _issuer) public view returns (uint[] memory) {\n        return issuerCertificates[_issuer];\n    }\n\n    function getCertificateIdentifier(uint _id) public view returns (string memory, uint, address, address, string memory, string memory, string memory){\n        Certificate memory cert = certificateIdentifier[_id];\n        return (cert.ipfsHash, cert.timeOfIssue, cert.issuer, cert.recipient, cert.ctype,cert.cname,cert.cdesc);\n    }\n\n}\n",
  "sourcePath": "/home/pranali/Desktop/CertChain/contracts/CertChain.sol",
  "compiler": {
    "name": "solc",
    "version": "0.5.0+commit.1d4f565a.Emscripten.clang"
  },
  "schemaVersion": "3.0.0",
  "updatedAt": "2019-01-06T04:36:00.978Z",
  "devdoc": {
    "methods": {}
  },
  "userdoc": {
    "methods": {}
  }
}